:020000040800F2
:1000000060070020CD010008470400083F040008F5
:1000100043040008190300087F0F000800000000D7
:10002000000000000000000000000000A908000817
:100030001D0300080000000091070008BD0900082A
:10004000E7010008E7010008E7010008E7010008F0
:10005000E7010008E7010008E7010008E7010008E0
:10006000E7010008E7010008E7010008E7010008D0
:10007000E7010008E7010008E7010008E7010008C0
:10008000E7010008E7010008E7010008E7010008B0
:10009000E7010008E7010008E7010008E7010008A0
:1000A000E7010008E7010008E7010008E701000890
:1000B000E7010008E7010008E7010008E701000880
:1000C000E7010008E7010008E7010008E701000870
:1000D000E70100083D0D0008E7010008E7010008FE
:1000E000E7010008E7010008E7010008E701000850
:1000F000E7010008E7010008E7010008E701000840
:10010000E7010008E7010008E7010008E70100082F
:10011000E7010008E7010008E7010008E70100081F
:10012000E7010008E7010008E7010008E70100080F
:1001300000F002F800F03AF80AA090E8000C8244BF
:100140008344AAF10107DA4501D100F02FF8AFF29C
:10015000090EBAE80F0013F0010F18BFFB1A43F0A5
:10016000010318471017000030170000103A24BF91
:1001700078C878C1FAD8520724BF30C830C144BF0C
:1001800004680C607047000000230024002500264E
:10019000103A28BF78C1FBD8520728BF30C148BFEA
:1001A0000B6070471FB51FBD10B510BD00F06EF895
:1001B0001146FFF7F7FF00F053FF00F0A0F803B47B
:1001C000FFF7F2FF03BC00F0DCFE000009488047A7
:1001D00009480047FEE7FEE7FEE7FEE7FEE7FEE729
:1001E000FEE7FEE7FEE7FEE704480549054A064B41
:1001F00070470000C10900083101000860010020BB
:1002000060070020600300206003002070470000AA
:100210000FB4044910B503AA029800F009F810BC05
:100220005DF814FB18000020704770477047704756
:10023000074B70B50D467B4400F011F80446284684
:1002400000F020F810B14FF0FF3070BD204670BDB7
:10025000DF0D000001694A1C02610878704700B593
:100260008FB0CDE901310021059105497944CDE9EF
:1002700003101146684600F02EF80FB000BD0000D4
:10028000E5FFFFFF007B00F080007047754600F03F
:100290003FF8AE4605006946534620F00700854604
:1002A00018B020B5FFF7A0FFBDE820404FF00006D2
:1002B0004FF000074FF000084FF0000B21F007014E
:1002C000AC46ACE8C009ACE8C009ACE8C009ACE891
:1002D000C0098D4670472DE9F04106460024D6E955
:1002E0000170F5688046304603E04146B847641C1B
:1002F0003046A8470028F8D12046BDE8F08110B567
:100300000446AFF300802046BDE81040FFF757BF1A
:1003100000487047FC00002000BFFEE770472DE951
:10032000F04102460025002600200023002400277B
:1003300091F803C00CF00F0591F803C00CF0100CFD
:10034000BCF1000F03D091F802C04CEA050591F80A
:1003500000C0BCF1000F31D0146800202BE04FF03A
:10036000010C0CFA00F3B1F800C00CEA03069E423F
:1003700020D183004FF00F0C0CFA03F7BC4305FAB1
:1003800003FC4CEA040491F803C0BCF1280F06D129
:100390004FF0010C0CFA00FCC2F814C00AE091F80E
:1003A00003C0BCF1480F05D14FF0010C0CFA00FC62
:1003B000C2F810C0401C0828D1D31460B1F800C0A6
:1003C000BCF1FF0F34DD546800202EE000F1080C72
:1003D0004FF0010808FA0CF3B1F800C00CEA03066C
:1003E0009E4221D183004FF00F0C0CFA03F7BC435F
:1003F00005FA03FC4CEA040491F803C0BCF1280F91
:1004000005D100F1080C08FA0CF8C2F8148091F834
:1004100003C0BCF1480F07D100F1080C4FF00108F0
:1004200008FA0CF8C2F81080401C0828CED354609B
:10043000BDE8F0810AB1016100E04161704700BF91
:10044000FEE700BFFEE7704770B5002100230F22D2
:10045000C47804B3154C246804F4E064C4F5E06483
:10046000210AC1F10403CA40447804FA03F18478F4
:100470001440214309010E4C0678A155047804F07C
:100480001F050124AC4005786D11AD0005F1E02594
:10049000C5F8004109E0047804F01F050124AC40D0
:1004A000044D0678761145F8264070BD0CED00E04D
:1004B00000E400E080E100E070B500240EE00021DF
:1004C000204600F0E6F8002504E0002000F050F996
:1004D000681CC5B2802DF8DB601CC4B2082CEEDBB2
:1004E00070BD000008B50121082000F063F9142058
:1004F0008DF8030003208DF802004FF48070ADF8F2
:10050000000069460A48FFF70AFF4FF40070ADF893
:10051000000069460648FFF702FF01221102044865
:10052000FFF788FF012251020148FFF783FF08BD52
:10053000000C014070B50546002415E080202041E4
:1005400000EA05024FF400710E48FFF773FF012225
:1005500011020C48FFF76EFF00224FF4807109482A
:10056000FFF768FF601CC4B2082CE7DB0122110210
:100570000448FFF75FFF00224FF480710148FFF746
:1005800059FF70BD000C014010B5012251020A480C
:10059000FFF750FF012211020748FFF74BFF00222F
:1005A0004FF400710448FFF745FF00224FF48071BB
:1005B0000148FFF73FFF10BD000C014010B50022BD
:1005C0004FF400710648FFF735FF0122110204487D
:1005D000FFF730FF012251020148FFF72BFF10BD4A
:1005E000000C014070B5002406E0002500E06D1C01
:1005F000B5F57A7FFBD3641CB4F57A7FF5D3FFF7AA
:1006000071FFAE2000F0A4F8D52000F0A1F8802002
:1006100000F09EF8A82000F09BF83F2000F098F82A
:10062000D32000F095F8002000F092F8402000F070
:100630008FF8A12000F08CF8C82000F089F8DA20AB
:1006400000F086F8122000F083F8812000F080F896
:10065000CF2000F07DF8D92000F07AF8F12000F0EA
:1006600077F8DB2000F074F8302000F071F8A42057
:1006700000F06EF8A62000F06BF88D2000F068F80E
:10068000142000F065F8AF2000F062F8FFF714FFC7
:1006900070BD70B505460C4645F0B00000F058F846
:1006A000102141EA141000F053F804F00F0000F09C
:1006B0004FF870BD2DE9F04105460E461746721EF3
:1006C000D206110E6A1E5206100EFFF7E2FF00243A
:1006D00009E0A7F12001134A02EB0111085D00F0C7
:1006E00047F8601CC4B2082CF3DB721ED206110E50
:1006F0006A1E012303EB4202D0B2FFF7CAFF0024B7
:100700000BE0A7F12001074A02EB011204F10801F6
:10071000505C00F02DF8601CC4B2082CF1DBBDE881
:10072000F0810000841200082DE9F04107460E46D2
:100730001546002407E02A5D3019C1B23846FFF79C
:10074000B9FF601CC4B2285D0028F4D1BDE8F08177
:1007500010B50446FFF718FF7820FFF7EBFE0020E6
:10076000FFF7E8FE2046FFF7E5FEFFF727FF10BD85
:1007700010B50446FFF708FF7820FFF7DBFE4020A6
:10078000FFF7D8FE2046FFF7D5FEFFF717FF10BD95
:100790007047000029B1064AD2690243044BDA616E
:1007A00004E0034AD2698243014BDA6170470000DA
:1007B0000010024029B1064A92690243044B9A6133
:1007C00004E0034A92698243014B9A61704700003A
:1007D0000010024030B500210022002400232D4DDE
:1007E0006D6805F00C0121B1042905D0082923D139
:1007F00005E0294D056022E0274D05601FE0254DED
:100800006D6805F47012234D6D6805F4803402257F
:1008100005EB92421CB9214D554305600BE01D4D7F
:100820006D6805F400351DB11C4D5543056002E0AF
:10083000194D5543056002E0174D056000BF00BF2C
:10084000144D6D6805F0F0010909154D6B5C0568E4
:10085000DD4045600F4D6D6805F4E061090A104DFB
:100860006B5C4568DD4085600A4D6D6805F460513C
:10087000C90A0B4D6B5C4568DD40C560054D6D6870
:1008800005F44041890B074D6B5CC568B5FBF3F57A
:10089000056130BD0010024000127A0000093D00E1
:1008A0001E0000202E000020704710B500F002F856
:1008B00010BD00000CB50020019000903348006886
:1008C00040F480303149086000BF3048006800F4CF
:1008D000003000900198401C0190009818B90198D0
:1008E000B0F5A06FF1D12948006800F4003010B1D4
:1008F0000120009001E0002000900098012843D1E1
:100900002348006840F0100021490860084600684C
:1009100020F0030008600846006840F0020008600C
:100920001A484068194948600846406848600846C7
:10093000406840F4806048600846406820F47C10BD
:1009400048600846406840F4E8104860084600687F
:1009500040F08070086000BF0C48006800F0007034
:100960000028F9D00948406820F003000749486092
:100970000846406840F00200486000BF03484068F5
:1009800000F00C000828F9D10CBD00000010024056
:1009900000200240042808D14FF0E021096941F00D
:1009A00004014FF0E022116107E04FF0E0210969F6
:1009B00021F004014FF0E022116170477047000000
:1009C00010B51348006840F001001149086008465E
:1009D0004068104908400E494860084600680E49C2
:1009E00008400B4908600846006820F48020086031
:1009F0000846406820F4FE0048604FF41F008860FD
:100A0000FFF753FF4FF000600449086010BD00007D
:100A1000001002400000FFF8FFFFF6FE08ED00E0C6
:100A200030B589B005460C4601210220FFF7B2FE21
:100A300001210520FFF7BEFE4020ADF82000182060
:100A40008DF8230003208DF8220008A92748FFF71E
:100A500066FC8020ADF8200018208DF823000320CC
:100A60008DF8220008A92148FFF759FCADF818506D
:100A7000ADF814400020ADF81A00ADF8160005A935
:100A80001B4800F009F97020ADF804000120ADF812
:100A900006000020ADF80C00C820ADF80A0001A93E
:100AA000134800F03FF80821114800F087F8702043
:100AB000ADF804000120ADF806000020ADF80C00F0
:100AC000C820ADF80A0001A9094800F081F8082102
:100AD000074800F0CFF80121054800F00BF801218C
:100AE000034800F013F809B030BD000000080140D1
:100AF0000004004021B1028842F08002028004E03C
:100B000002884FF67F731A400280704721B1028835
:100B100042F00102028004E002884FF6FE731A40A0
:100B20000280704770B5002400220023058C4FF628
:100B3000FE7635400584028C8388048B4FF68F75D2
:100B40002C40B51E2C400D882C43751E2A400D8963
:100B50002A434D882A43144DA8420BD0134DA84276
:100B600008D0134DA84205D0124DA84202D0124D14
:100B7000A84213D14FF6F7752A404D892A434FF604
:100B8000FB752A408D882A434FF6FF652B404FF6B0
:100B9000FF552B408D892B43CD892B4383800483C4
:100BA000CD888586028470BD002C01400034014050
:100BB0000040014000440140004801400A46002135
:100BC000018B4FF6F7731940114301837047000002
:100BD00070B5002400220023058C4FF6EF763540D7
:100BE0000584028C8388048B48F6FF752C404FF6F1
:100BF000FF452C400D884FF6FF7606EA05252C436D
:100C00004FF6DF752A400D8906EA05152A434D88FF
:100C100006EA05152A43154DA84202D0144DA842F4
:100C20001DD14FF67F752A404D894FF6FF7606EAB3
:100C300005152A434FF6BF752A408D8806EA05152B
:100C40002A434FF6FF352B404FF2FF752B408D891D
:100C500006EA85052B43CD8906EA85052B4383806B
:100C60000483CD880587028470BD0000002C0140FC
:100C7000003401400A460021018B4FF2FF731940F6
:100C80004FF6FF7303EA02231943018370478186FD
:100C90007047018770470000002202881D4B984270
:100CA0000ED01D4B98420BD0B0F1804F08D01B4B9B
:100CB000984205D01A4B984202D01A4B984204D160
:100CC0004FF68F731A404B881A43174B984207D040
:100CD000164B984204D04FF6FF431A40CB881A4374
:100CE00002808B8883850B8803850A4B98420BD042
:100CF000094B984208D00E4B984205D00D4B9842B4
:100D000002D00D4B984201D10B7A038601238382D6
:100D100070470000002C01400034014000040040F6
:100D200000080040000C004000100040001400408B
:100D300000400140004401400048014010B540F22D
:100D400025511D4800F057F810B31B4800F00EF96C
:100D5000C4B21A48008800F40040C8B91748008897
:100D600000F4804060B10A2C03D0002013490880B1
:100D700020E01248008840F400401049088019E043
:100D80000D2C06D10D48008840F480400B490880A6
:100D900010E00A480088C0F30D0009490C540748C8
:100DA0000088401C0549088008460088C72801DDE6
:100DB0000020088010BD0000003801401C00002009
:100DC0003400002021B1828942F40052828104E083
:100DD00082894DF6FF731A408281704702460020D7
:100DE000B1F5007F00D100BF13880B400BB101208B
:100DF00000E00020704770B5024600240023002563
:100E0000002040F66A16B14200D100BFC1F342157E
:100E100001F01F03012606FA03F3012D02D1968982
:100E2000334006E0022D02D1168A334001E0968A53
:100E300033400C12012606FA04F41688344013B12C
:100E40000CB1012000E0002070BDF0B50346002485
:100E500000260025002040F66A17B94200D100BFE5
:100E60001846C1F3421401F01F06012707FA06F5E0
:100E7000012C01D10C3004E0022C01D1103000E033
:100E800014301AB107682F43076002E00768AF43C8
:100E90000760F0BD2DE9F04786B005460E460024F8
:100EA000A24600BFA1460027B08900B100BF2F466F
:100EB0002C8A4CF6FF700440F08804432C82AC89E5
:100EC0004EF6F3100440B088318908437189084315
:100ED0000443AC81AC8A4FF6FF400440B089044320
:100EE000AC8201A8FFF776FC1F48874202D1DDF8EB
:100EF00010A001E0DDF80CA0A88900F4004040B18A
:100F00000AEBCA0000EB0A1031684900B0FBF1F8A7
:100F100007E00AEBCA0000EB0A1031688900B0FB59
:100F2000F1F86420B8FBF0F004012009642101FB12
:100F30001089A88900F4004040B1322000EBC900BC
:100F4000B0FBF1F000F00700044308E0322000EBB2
:100F500009106421B0FBF1F000F00F0004432C8174
:100F600006B0BDE8F08700000038014001468888DF
:100F7000C0F308007047C1F308028280704700BFC9
:100F8000FEE7014600BF704710B56FF00400FFF7A1
:100F900001FD0A4800680A49B0FBF1F009490870F0
:100FA0000846007800EB4001C1EBC0104FF6FF711E
:100FB00001EAC0000449088010BD000000000020C4
:100FC00000127A0014000020160000200146114A89
:100FD00012884A434FF0E0235A6100229A611A4670
:100FE000126942F001021A6100BF4FF0E02210695D
:100FF00000F001021AB100F48032002AF5D04FF05F
:10100000E022126922F001024FF0E0231A6100226F
:101010009A6170471600002000BF054A128802F04E
:101020004002002AF9D0C2B2014B1B1D1A80704742
:101030000038014008B501211020FFF7BBFB4FF439
:101040000050ADF8000010208DF8030003208DF84B
:10105000020069460148FFF762F908BD001001402F
:101060000026FFF7BFFAFFF7E5FFFFF78DFF4FF40C
:10107000165000F0B7F847214FF41670FFF7D0FC78
:101080002DA201210846FFF74FFB2FA201210220CC
:10109000FFF74AFB4EE03048008800F4004000288B
:1010A00035D02D480088C0F30D052C480078302835
:1010B0000AD0312802D0322809D102E000F076F8B7
:1010C00008E000F081F805E000F064F802E000F0CC
:1010D00053F800BF00BF22A0FFF79AF800240DE0EC
:1010E0001E48015D2148FFF746FF00BF40211F4811
:1010F000FFF774FE0128F9D1601C84B2AC42EFDB2B
:101100001BA0FFF785F800201349088012E0701C2F
:1011100086B21E2096FBF0F100FB116038B915482D
:10112000006808B9012000E00020124908600A2088
:10113000FFF74CFFAFE7000068656C6C6F20776FBE
:10114000726C64210000000068656C6C6F207A6826
:10115000616E676B616921001C0000203400002073
:101160006D6573736167653D3D00000000380140A7
:101170000D0A0000B401224210B54FF41671044864
:10118000FFF785FD4FF416710148FFF782FD10BD92
:101190000004004010B564210348FFF778FD642186
:1011A0000148FFF776FD10BD0004004010B54FF474
:1011B000C8710448FFF76BFD64210248FFF769FD21
:1011C00010BD00000004004010B564210448FFF782
:1011D0005EFD4FF4C8710248FFF75BFD10BD0000D3
:1011E0000004004010B586B00446012144F204001A
:1011F000FFF7E0FA4FF40070ADF8140003208DF80B
:10120000160018208DF8170005A91C48FFF787F86D
:101210004FF48060ADF8140004208DF8170005A984
:101220001648FFF77CF825208DF8000003208DF884
:1012300001008DF8020001208DF803006846FFF7D9
:1012400003F901940020ADF80800ADF80A00ADF8EC
:101250000C00ADF810000C20ADF80E0001A90848F4
:10126000FFF718FE012240F225510548FFF7EDFD7A
:1012700001210348FFF7A6FD06B010BD000801409C
:1012800000380140000000000000000000000000E5
:1012900000000000000000F8000000000000003323
:1012A0003000000000100C06100C060000000000CA
:1012B0000000000040C07840C0784000043F0404B3
:1012C0003F040400007088FC08300000001820FF74
:1012D000211E0000F008F000E018000000211C03AF
:1012E0001E211E0000F00888700000001E2123242B
:1012F0001927211010160E00000000000000000049
:1013000000000000000000E01804020000000007D8
:101310001820400000020418E000000000402018DF
:1013200007000000404080F0804040000202010FB2
:1013300001020200000000F0000000000101011F96
:1013400001010100000000000000000080B07000FA
:10135000000000000000000000000000000101018A
:101360000101010100000000000000000030300019
:1013700000000000000000008060180400601806F3
:101380000100000000E010080810E000000F10202D
:1013900020100F00001010F8000000000020203F77
:1013A0002020000000700808088870000030282401
:1013B00022213000003008888848300000182020A2
:1013C00020110E000000C02010F8000000070424C7
:1013D000243F240000F8088888080800001921200C
:1013E00020110E0000E0108888180000000F112066
:1013F00020110E0000380808C83808000000003F1F
:10140000000000000070880808887000001C22217D
:1014100021221C0000E010080810E000000031222A
:1014200022110F00000000C0C000000000000030CA
:10143000300000000000008000000000000080601C
:10144000000000000000804020100800000102049D
:101450000810200040404040404040000404040484
:101460000404040000081020408000000020100840
:1014700004020100007048080808F0000000003075
:1014800036010000C030C828E810E0000718272403
:1014900023140B000000C038E0000000203C2302B1
:1014A0000227382008F8888888700000203F202014
:1014B00020110E00C0300808080838000718202046
:1014C0002010080008F808080810E000203F20203D
:1014D00020100F0008F88888E8081000203F20201E
:1014E0002320180008F88888E8081000203F200012
:1014F00003000000C030080808380000071820204A
:10150000221E020008F808000008F808203F210108
:1015100001213F20000808F8080800000020203FB3
:101520002020000000000808F8080800C080808023
:101530007F00000008F888C028180800203F20011C
:101540002638200008F8080000000000203F202076
:101550002020300008F8F800F8F80800203F003F8D
:10156000003F200008F830C00008F808203F2000A5
:1015700007183F00E01008080810E0000F102020B6
:1015800020100F0008F808080808F000203F21018B
:1015900001010000E01008080810E0000F182424E2
:1015A00038504F0008F8888888887000203F200055
:1015B000030C30200070880808083800003820210B
:1015C00021221C00180808F8080818000000203F15
:1015D0002000000008F808000008F808001F20207C
:1015E00020201F000878880000C83808000007384D
:1015F0000E010000F80800F80008F800033C07009E
:10160000073C0300081868808068180820302C0305
:10161000032C30200838C800C83808000000203FDC
:101620002000000010080808C838080020382621CB
:1016300020201800000000FE020202000000007FCF
:1016400040404000000C30C00000000000000001DD
:101650000638C00000020202FE00000000404040C8
:101660007F000000000004020202040000000000ED
:10167000000000000000000000000000808080806A
:101680008080808000020204000000000000000052
:1016900000000000000080808080000000192422EB
:1016A00022223F2008F8008080000000003F112027
:1016B00020110E000000008080800000000E11202C
:1016C00020201100000000808088F800000E11200A
:1016D00020103F200000808080800000001F222218
:1016E00022221300008080F0888888180020203F84
:1016F000202000000000808080808000006B949497
:101700009493600008F8008080800000203F210052
:1017100000203F2000809898000000000020203F1B
:1017200020200000000000809898000000C0808009
:10173000807F000008F8000080808000203F2402A5
:101740002D302000000808F8000000000020203F95
:10175000202000008080808080808000203F20004A
:101760003F20003F8080008080800000203F2100DB
:1017700000203F200000808080800000001F20208B
:1017800020201F00808000808000000080FFA120BA
:1017900020110E000000008080808000000E1120CB
:1017A00020A0FF80808080008080800020203F215A
:1017B000200001000000808080808000003324240D
:1017C00024241900008080E0808000000000001FB9
:1017D000202000008080000000808000001F20206A
:1017E00020103F20808080000080808000010E302B
:1017F0000806010080800080008080800F300C038C
:101800000C300F0000808000808080000020312E8E
:101810000E312000808080000080808080818E706A
:101820001806010000808080808080000021302C1C
:101830002221300000000000807C02020000000035
:10184000003F404000000000FF00000000000000DA
:10185000FF0000000002027C800000000040403FCA
:101860000000000000060101020204040000000064
:101870000000000094180008000000203400000060
:101880006C010008C8180008340000202C07000074
:101890008801000800A24A040000000000000000C7
:1018A0000102030406070809000000000000000010
:1018B0000000000000000102030401020304060707
:0818C0000809020406080000FB
:04000005080001CD21
:00000001FF
